:100000000C9461000C947E000C947E000C947E0095
:100010000C947E000C947E000C947E000C947E0068
:100020000C947E000C947E000C947E000C947E0058
:100030000C947E000C947E000C947E000C947E0048
:100040000C943E010C947E000C947E000C947E0077
:100050000C947E000C947E000C947E000C947E0028
:100060000C947E000C947E00000000002400270009
:100070002A0000000000250028002B0000000000DE
:1000800023002600290004040404040404040202DA
:100090000202020203030303030301020408102007
:1000A0004080010204081020010204081020000012
:1000B0000008000201000003040700000000000027
:1000C000000011241FBECFEFD8E0DEBFCDBF11E08E
:1000D000A0E0B1E0EEEFF4E002C005900D92A43094
:1000E000B107D9F721E0A4E0B1E001C01D92A03131
:1000F000B207E1F70E9488010C947D020C94000085
:10010000833081F028F4813099F08230A1F0089595
:100110008730A9F08830B9F08430D1F48091800024
:100120008F7D03C0809180008F7780938000089539
:1001300084B58F7702C084B58F7D84BD089580918A
:10014000B0008F7703C08091B0008F7D8093B000A6
:100150000895CF93DF93282F30E0F901E255FF4F48
:100160008491F901E656FF4FD491F901EA57FF4F08
:10017000C491CC2391F081110E948000EC2FF0E01B
:10018000EE0FFF1FE458FF4FA591B491EC91ED23C2
:1001900081E090E021F480E002C080E090E0DF9117
:1001A000CF9108951F93CF93DF93282F30E0F9016B
:1001B000E255FF4F8491F901E656FF4FD491F901C2
:1001C000EA57FF4FC491CC23C9F0162F81110E942A
:1001D0008000EC2FF0E0EE0FFF1FEE58FF4FA591CF
:1001E000B4918FB7F894111105C09C91ED2FE09553
:1001F000E92302C0EC91ED2BEC938FBFDF91CF91FF
:100200001F910895CF93DF9390E0FC01E656FF4FD6
:100210002491FC01EA57FF4F8491882361F190E01B
:10022000880F991FFC01E859FF4FC591D491FC013B
:10023000EE58FF4FA591B491611109C09FB7F89492
:100240008881209582238883EC912E230BC0623015
:1002500061F49FB7F8943881822F80958323888337
:10026000EC912E2B2C939FBF06C08FB7F894E8819A
:100270002E2B28838FBFDF91CF9108951F920F926D
:100280000FB60F9211242F933F938F939F93AF93A9
:10029000BF938091090190910A01A0910B01B09147
:1002A0000C013091080123E0230F2D3720F4019633
:1002B000A11DB11D05C026E8230F0296A11DB11D89
:1002C000209308018093090190930A01A0930B01E8
:1002D000B0930C018091040190910501A091060159
:1002E000B09107010196A11DB11D80930401909367
:1002F0000501A0930601B0930701BF91AF919F91B3
:100300008F913F912F910F900FBE0F901F901895D6
:10031000789484B5826084BD84B5816084BD85B5E0
:10032000826085BD85B5816085BD80916E008160EC
:1003300080936E0010928100809181008260809392
:100340008100809181008160809381008091800094
:100350008160809380008091B10084608093B100BF
:100360008091B00081608093B00080917A008460B9
:1003700080937A0080917A00826080937A008091E5
:100380007A00816080937A0080917A0080688093FF
:100390007A001092C10062E085E00E94020161E0F3
:1003A00088E00E94020160E088E00E94D20060E0E4
:1003B00087E00E94020180E0E82E80E0F82EDD2434
:1003C000D39400E717E1C0E1D7E287E00E94A900DB
:1003D000892B11F0D0920F0185E00E94A900892B92
:1003E00011F561E087E00E94020160E087E00E9471
:1003F000D20080910E0181110BC080910D018111FD
:1004000007C061E088E00E94D200D0920E0115C0C2
:100410008091020190910301845691099093030108
:10042000809302010AC060E087E00E9402011093FD
:1004300003010093020110920D0187E00E94A900C0
:10044000892B09F055C080910F01882309F450C011
:1004500080910001909101018456910990930101CE
:1004600080930001809100019091010118161906F6
:100470003CF480910201909103011816190694F042
:1004800060E088E00E94D200D0930101C093000197
:10049000109303010093020110920E0110920F01BC
:1004A000D0920D018FB7F8944091090150910A0143
:1004B00060910B0170910C018FBF2FB7F894809160
:1004C000090190910A01A0910B01B0910C012FBF7D
:1004D000841B950BA60BB70B84369105A105B105BE
:1004E00060F3E114F10409F470CF0E9400006DCFB5
:0E04F000D0930101C0930001B5CFF894FFCF67
:0404FE00102770173C
:00000001FF
